:1000000071C000008EC000008CC000008AC00000DB
:1000100088C0000086C0000084C0000082C00000CC
:1000200080C000007EC000007CC000007AC00000DC
:1000300078C0000076C0000074C0000072C00000EC
:1000400070C000006EC000006CC000006AC00000FC
:1000500068C0000066C0000064C0000062C000000C
:1000600060C000005EC000005CC000005AC000001C
:1000700058C0000056C0000054C0000052C000002C
:1000800050C000004EC000004CC000004AC000003C
:1000900048C0000046C0000044C0000042C000004C
:1000A00040C000003EC000003CC000003AC000005C
:1000B00038C0000036C0000034C0000032C000006C
:1000C00030C000002EC000002CC000002AC000007C
:1000D00028C0000026C0000033C3000022C000007A
:1000E00020C0000011241FBECFEFD1E2DEBFCDBF84
:1000F00000E00CBF12E0A0E0B2E0E2E7FEE000E0CA
:100100000BBF02C007900D92A631B107D9F722E0CC
:10011000A6E1B2E001C01D92AF35B207E1F75FD4AE
:10012000A6C66ECF87B1876F87B988B1807888B946
:10013000089586E69EE00197F1F700004098419807
:1001400080E388B9429AEFEFF7E43197F1F700C006
:1001500000004298E6E6FEE03197F1F70000409893
:10016000419888B9429AEFEFF7E43197F1F700C070
:1001700000004298E6E6FEE03197F1F70000409873
:10018000419888B9429A8FEF97E40197F1F700C040
:1001900000004298E6E6FEE03197F1F70000409853
:1001A000419880E288B9429A8FEF97E40197F1F77E
:1001B00000C000004298089598B19F7098B998B116
:1001C000282F207F922B98B940984198429AEFEFC0
:1001D000F7E43197F1F700C00000429898B19F70A2
:1001E00098B998B18295807F892B88B940984198B9
:1001F000429A8FEF97E40197F1F700C00000429810
:10020000089597DF86E69EE00197F1F7000088E207
:10021000D3DF81E0D1DF86E0CFDF8EE0CDDF80E885
:10022000CBCF08958F929F92AF92BF92CF92DF92E1
:10023000EF92FF920F931F93CF93DF93A09014023E
:10024000B090150200914B0210914C020A191B0943
:1002500010932302009322026091200270912102E8
:10026000072E000C880B990BFFD46B017C01B801A1
:10027000012E000C880B990BF7D42FE632E143E0F6
:100280005AE37ED59B01AC01C701B60156D4B9D45F
:100290006B017C017093210260932002C09149029E
:1002A000D0914A02CA19DB09D0931F02C0931E02E3
:1002B00060911C0270911D02072E000C880B990B97
:1002C000D3D44B015C01BE010D2E000C880B990BA1
:1002D000CBD42FE632E143E05AE352D59B01AC0187
:1002E000C501B4012AD48DD470931D0260931C0201
:1002F000C00ED11ED0922702C0922602C60FD71F71
:10030000D0932502C0932402DF91CF911F910F91CA
:10031000FF90EF90DF90CF90BF90AF909F908F9025
:100320000895EF92FF920F931F93E616F7060807C2
:10033000190754F0DC01CB0182179307A407B50716
:100340002CF4DA01C90102C0D801C7018F3F2FEF99
:100350009207A207B20754F41098119AB095A0958D
:10036000909581959F4FAF4FBF4F0DC08230910543
:10037000A105B1051CF01198109A05C010981198AC
:1003800080E090E0DC019093A9008093A8001F9189
:100390000F91FF90EF900895EF92FF920F931F93AC
:1003A000E616F7060807190754F0DC01CB0182179F
:1003B0009307A407B5072CF4DA01C90102C0D801DC
:1003C000C70181302FEF9207A207B20724F481E022
:1003D0009FEFAFEFBFEF8F3F9105A105B10529F06A
:1003E00024F08FEF90E0A0E0B0E08F3F2FEF920776
:1003F000A207B20754F41298139AB095A09590955D
:1004000081959F4FAF4FBF4F0DC082309105A10521
:10041000B1051CF01398129A05C01298139880E049
:1004200090E0DC019093AB008093AA001F910F91A4
:10043000FF90EF900895EF92FF920F931F93E616AF
:10044000F7060807190754F0DC01CB018217930760
:10045000A407B5072CF4DA01C90102C0D801C7010D
:100460008F3F2FEF9207A207B20754F41498159A02
:10047000B095A095909581959F4FAF4FBF4F0DC000
:1004800082309105A105B1051CF01598149A05C09C
:100490001498159880E090E0DC019093AD00809373
:1004A000AC001F910F91FF90EF9008954F925F92D3
:1004B0006F927F928F929F92AF92BF92CF92DF9274
:1004C000EF92FF920F931F93CF93DF935C016B0129
:1004D0004901EA01DD230CF42196D595C795BE01AB
:1004E0006A0D7B1D072E000C880B990BBDD32B01C9
:1004F0003C01B401990C880B990BB6D326E636E67D
:1005000046EE5EE33DD49B01AC01C301B20115D3BD
:1005100078D370934E0260934D02B501BB0C880BEB
:10052000990BA2D32DEC3CEC4CE45FE329D44B01B6
:100530005C01BE016C197D09072E000C880B990B1C
:1005400093D3A5019401F8D22B013C01B801110FFE
:10055000880B990B89D32DEC3CEC4CE45FE310D471
:100560009B01AC01C301B201E7D24BD37093580297
:1005700060935702CC0DDD1DBE01DD0F880B990B7A
:1005800073D3A5019401D8D24B015C01B701FF0CD4
:10059000880B990B69D32DEC3CEC4CE45FE3F0D372
:1005A0009B01AC01C501B401C7D22BD37093540297
:1005B00060935302072E000C880B990BE12CF12C51
:1005C0008701EA9421E03FEF4FEF5FEFAADE6091F1
:1005D000570270915802072E000C880B990B21E0EE
:1005E0003FEF4FEF5FEFD8DE60914D0270914E020A
:1005F000072E000C880B990B21E03FEF4FEF5FEFC8
:100600001ADFDF91CF911F910F91FF90EF90DF9054
:10061000CF90BF90AF909F908F907F906F905F90A2
:100620004F90089580E480937C0087E880937A005F
:1006300010927B000895ECE7F0E09081907E90832B
:10064000EBE7F0E09081977F9083982F9F70983030
:1006500048F4ECE7F0E090818770892B808310925A
:100660007B000CC0ECE7F0E080819770982B9083C2
:10067000EBE7F0E01082808188608083EAE7F0E0B9
:10068000808180648083808184FFFDCF80917800A9
:10069000909179000895CF93DF9380E0CCDFBC0187
:1006A00069507109CAE6DAE1CE01CDD3645071090F
:1006B00070934C0260934B0281E0BDDFBC01695036
:1006C0007109CE01C0D36450710970934A026093DE
:1006D0004902DF91CF91089510BA8FEF8093010105
:1006E0008093020181B90895E091120220911302D2
:1006F0008E2F922FAC01495C51094633510598F475
:10070000E093100220931102875E91094097B8F49C
:10071000E75EF0E0EE0FFF1FE75DFD4F81E090E048
:10072000918380830895893C910548F4A09110023B
:10073000A95CA03120F4B0E0A050BE4FEC93089526
:100740001F920F920FB60F9211240BB60F922F9398
:100750003F934F935F936F937F938F939F93AF9349
:10076000BF93EF93FF938091360190E09093130233
:1007700080931202B9DFFF91EF91BF91AF919F91EA
:100780008F917F916F915F914F913F912F910F903A
:100790000BBE0F900FBE0F901F9018951092350151
:1007A0008FE58093340188E98093310186E080935E
:1007B00032018FEF809304018093050108958091A9
:1007C000290290912A02019759F49091280281E020
:1007D00089278093280210922A02109229020895F4
:1007E00080912B0290912C02019759F4909128024C
:1007F00081E089278093280210922C0210922B020C
:10080000089580912D0290912E02019759F49091B4
:10081000280281E089278093280210922E021092EC
:100820002D02089580912F0290913002019759F482
:100830009091280281E0892780932802109230024B
:1008400010922F0208958091310290913202019707
:1008500059F49091280281E0892780932802109210
:100860003202109231020895809133029091340245
:10087000019759F49091280281E0892780932802FA
:1008800010923402109233020895809135029091B3
:100890003602019759F49091280281E089278093CC
:1008A0002802109236021092350208958091370284
:1008B00090913802019759F49091280281E089279C
:1008C0008093280210923802109237020895809186
:1008D000390290913A02019759F49091280281E0EF
:1008E00089278093280210923A02109239020895C3
:1008F00080913B0290913C02019759F4909128021B
:1009000081E089278093280210923C0210923B02DA
:10091000089580913D0290913E02019759F4909183
:10092000280281E089278093280210923E021092CB
:100930003D02089580913F0290914002019759F441
:100940009091280281E0892780932802109240022A
:1009500010923F02089580914102909142020197C6
:1009600059F49091280281E08927809328021092FF
:1009700042021092410208958091430290914402F4
:10098000019759F49091280281E0892780932802E9
:100990001092440210924302089580914502909172
:1009A0004602019759F49091280281E089278093AB
:1009B0002802109246021092450208958091470243
:1009C00090914802019751F49091280281E0892783
:1009D00080932802109248021092470208957CDE0C
:1009E00021DEA0DB0EDCDADEE0EAF0E08081896A5D
:1009F0008083E1EAF0E080818B60808378944BDE35
:100A000011DCDDDE80912802813009F07CC020916C
:100A10004B0230914C028091140290911502821782
:100A200093070CF07FC04091490250914A02481749
:100A3000590744F07CC02091490230914A02821744
:100A40009307FCF4809124029091250220912602C4
:100A500030912702AC01421B530B50931B02409371
:100A60001A02220F331F3093190220931802919516
:100A700081959109880F991F909317028093160210
:100A80002EC02817390744F02AC02091490230911E
:100A90004A02821793071CF5209126023091270203
:100AA0004091240250912502C901840F951F909313
:100AB0001B0280931A0280E090E0BC01621B730B62
:100AC0009B01220F331F3093190220931802841BBD
:100AD000950B880F991F9093170280931602E09050
:100AE0001602F0901702009118021091190220913D
:100AF0001A0230911B0240E050E060E070E088ECA8
:100B000090E0D4DC7CCFE12CF12C00E010E020E080
:100B100030E040E050E060E070E080E090E0C6DC73
:100B200012B86DCF281739070CF485CFD8CF281706
:100B300039070CF0AACF7FCF5058BB27AA270ED079
:100B4000E5C0D6D030F0DBD020F031F49F3F11F477
:100B50001EF4CBC00EF4E095E7FBC1C0E92FE7D04F
:100B600080F3BA17620773078407950718F071F4CA
:100B70009EF5FFC00EF4E0950B2EBA2FA02D0B01B1
:100B8000B90190010C01CA01A0011124FF27591BD2
:100B900099F0593F50F4503E68F11A16F040A22FD8
:100BA000232F342F4427585FF3CF46953795279549
:100BB000A795F0405395C9F77EF41F16BA0B620B48
:100BC000730B840BBAF09150A1F0FF0FBB1F661F8F
:100BD000771F881FC2F70EC0BA0F621F731F841FD2
:100BE00048F4879577956795B795F7959E3F08F0F8
:100BF000B3CF9395880F08F09927EE0F97958795B7
:100C0000089504D06894B111B5C0089598D088F0C3
:100C10009F5790F0B92F9927B751A0F0D1F0660FE8
:100C2000771F881F991F1AF0BA95C9F712C0B13003
:100C300081F09FD0B1E008959CC0672F782F88275E
:100C4000B85F39F0B93FCCF3869577956795B39542
:100C5000D9F73EF490958095709561957F4F8F4FB1
:100C60009F4F0895E89409C097FB3EF490958095B6
:100C7000709561957F4F8F4F9F4F9923A9F0F92F62
:100C800096E9BB279395F695879577956795B795E0
:100C9000F111F8CFFAF4BB0F11F460FF1BC06F5FC6
:100CA0007F4F8F4F9F4F16C0882311F096E911C0D8
:100CB000772321F09EE8872F762F05C0662371F0F9
:100CC00096E8862F70E060E02AF09A95660F771F0D
:100CD000881FDAF7880F9695879597F9089597F901
:100CE0009F6780E870E060E008959FEF80EC0895D2
:100CF00000240A94161617061806090608950024FB
:100D00000A9412161306140605060895092E039474
:100D1000000C11F4882352F0BB0F40F4BF2B11F4E8
:100D200060FF04C06F5F7F4F8F4F9F4F089557FD47
:100D30009058440F551F59F05F3F71F04795880F49
:100D400097FB991F61F09F3F79F0879508951216E0
:100D500013061406551FF2CF4695F1DF08C016168C
:100D600017061806991FF1CF86957105610508943D
:100D70000895E894BB2766277727CB0197F9089554
:100D80000BD0C4CFB5DF28F0BADF18F0952309F0F7
:100D9000A6CFABCF1124EECFCADFA0F3959FD1F33E
:100DA000950F50E0551F629FF001729FBB27F00D19
:100DB000B11D639FAA27F00DB11DAA1F649F66276E
:100DC000B00DA11D661F829F2227B00DA11D621FBD
:100DD000739FB00DA11D621F839FA00D611D221F77
:100DE000749F3327A00D611D231F849F600D211D5B
:100DF000822F762F6A2F11249F5750408AF0E1F0FE
:100E000088234AF0EE0FFF1FBB1F661F771F881F46
:100E100091505040A9F79E3F510570F060CFAACF86
:100E20005F3FECF3983EDCF3869577956795B79531
:100E3000F795E7959F5FC1F7FE2B880F911D96955B
:100E4000879597F90895AA1BBB1B51E107C0AA1FFC
:100E5000BB1FA617B70710F0A61BB70B881F991F5B
:100E60005A95A9F780959095BC01CD010895F89405
:020E7000FFCFB2
:100E72006464646464646464646464646464646430
:060E8200FFFFFFFF190055
:00000001FF
