:1000000071C000008EC000008CC000008AC00000DB
:1000100088C0000086C000002FC3000082C000001E
:1000200080C000007EC000007CC000007AC00000DC
:1000300078C0000076C0000074C0000072C00000EC
:1000400070C000006EC000006CC000006AC00000FC
:10005000C6C3000066C0000064C0000062C00000AB
:1000600060C000005EC000005CC000005AC000001C
:1000700058C0000056C0000054C0000052C000002C
:1000800050C000004EC000004CC000004AC000003C
:1000900048C0000046C0000044C0000042C000004C
:1000A00040C000003EC000003CC000003AC000005C
:1000B00038C0000036C0000034C0000032C000006C
:1000C00030C000002EC000002CC000002AC000007C
:1000D00028C0000026C0000079C2000022C0000035
:1000E00020C0000011241FBECFEFD1E2DEBFCDBF84
:1000F00000E00CBF12E0A0E0B2E0EEE3FBE000E0C5
:100100000BBF02C007900D92AC31B107D9F722E0C6
:10011000ACE1B2E001C01D92A438B207E1F717D3F9
:100120000CC56ECF4F925F926F927F928F929F928B
:10013000AF92BF92CF92DF92EF92FF92CF93DF9375
:1001400000D01F92CDB7DEB7C0901402D090150238
:1001500046010D2C000CAA08BB08409016025090D6
:100160001702052C000C66087708D194C194D108B9
:100170000D2C000CEE08FF08D701C601881999095B
:10018000AA09BB0989839A83AB83BC83E2E0F2E0CE
:10019000A081B0E029813A814B815C8193D4A30195
:1001A000920174D4DA01C901880D991DAA1DBB1DE5
:1001B0009093470280934602A0910302B0E0298108
:1001C0003A814B815C817ED4A30192015FD4DA0134
:1001D000C901880D991DAA1DBB1D909345028093EE
:1001E0004402209112023091130288279927821B22
:1001F000930B6C01990FEE08FF08A0910402A9016E
:10020000330F660B770B9A01AB012C193D094E0990
:100210005F09B0E057D4A301920138D4DA01C901D3
:100220008C0D9D1DAE1DBF1D909343028093420215
:10023000A0910502B0E029813A814B815C8142D4D2
:10024000A301920123D4820E931EA41EB51E909288
:1002500041028092400280914802909149020197A8
:10026000C9F48091320290913302F1E08F2790938C
:1002700033028093320281E090E090933D028093BC
:100280003C0210921D0210921C0210924902109220
:1002900048025DC180914A0290914B02019779F426
:1002A000809134029091350221E0822790933502AB
:1002B0008093340210924B0210924A0248C18091FE
:1002C0004C0290914D02019779F480912602909111
:1002D0002702A1E08A27909327028093260210929A
:1002E0004D0210924C0233C180914E0290914F0208
:1002F000019759F580910002909101020196909327
:1003000001028093000280FD07C082E090E090939C
:100310003102809330020EC081709078992324F4CA
:1003200001978E6F9F6F0196019721F41092310211
:100330001092300281E090E090932902809328028D
:1003400010924F0210924E0202C180915002909181
:100350005102019759F58091000290910102019795
:10036000909301028093000280FD07C081E090E03D
:1003700090933102809330020EC08170907899235F
:1003800024F401978E6F9F6F0196019721F41092CC
:1003900031021092300281E090E090932902809324
:1003A00028021092510210925002D1C08091520244
:1003B00090915302019779F480912A0290912B0237
:1003C000B1E08B2790932B0280932A021092530264
:1003D00010925202BCC08091540290915502019734
:1003E000E1F480913E0290913F02019684309105A4
:1003F00029F090933F0280933E0204C010923F0286
:1004000010923E0281E090E090933D0280933C0286
:1004100010925502109254029AC080915602909107
:100420005702019769F410923F0210923E02109217
:100430003D0210923C02109257021092560287C061
:100440008091580290915902019729F41092590213
:10045000109258027CC080915A0290915B020197E1
:1004600029F410925B0210925A0271C080915C02D2
:1004700090915D02019779F4809136029091370254
:10048000E1E08E27909337028093360210925D024E
:1004900010925C025CC080915E0290915F020197B5
:1004A00029F410925F0210925E0251C080916002A6
:1004B00090916102019779F4809124029091250234
:1004C000F1E08F279093250280932402109261021D
:1004D000109260023CC08091620290916302019789
:1004E00099F480912C0290912D0221E08227909323
:1004F0002D0280932C02109223021092220210925D
:1005000063021092620223C080916402909165029E
:10051000019799F480912E0290912F02A1E08A27F1
:1005200090932F0280932E021092230210922202A7
:1005300010926502109264020AC080916602909146
:100540006702019721F410926702109266020F90E1
:100550000F900F900F90DF91CF91FF90EF90DF9071
:10056000CF90BF90AF909F908F907F906F905F9053
:100570004F900895E0911A0220911B028E2F922F26
:10058000AC01495C51094633510598F4E0931802D7
:1005900020931902875E91094097B8F4E75EF0E076
:1005A000EE0FFF1FE85BFD4F81E090E091838083B9
:1005B0000895893C910548F4A0911802A95CA031E6
:1005C00020F4B0E0AE5FBD4FEC9308951F920F9200
:1005D0000FB60F9211240BB60F922F933F934F93A8
:1005E0005F936F937F938F939F93AF93BF93EF939B
:1005F000FF938091360190E090931B0280931A0242
:10060000B9DFFF91EF91BF91AF919F918F917F9152
:100610006F915F914F913F912F910F900BBE0F9073
:100620000FBE0F901F901895109235018FE58093A3
:10063000340188E98093310186E080933201089586
:100640008091200290912102892BA9F46C9A81E378
:100650008A95F1F70000749A8AE48A95F1F7749804
:1006600082E68A95F1F700006C9881E090E0909323
:1006700021028093200208951F920F920FB60F92CD
:1006800011248F939F931092900082E080939100A9
:10069000109295001092940081E090E090931F02D8
:1006A00080931E029F918F910F900FBE0F901F900D
:1006B000189510926E0210926F02109270021092B2
:1006C00071028CB18091940090919500A0E0B0E00F
:1006D0008093780290937902A0937A02B0937B0280
:1006E000109291008091780290917902A0917A0203
:1006F000B0917B02BC01CD01969587957795679562
:1007000060936A0270936B0280936C0290936D0207
:100710002FD126EB33EF42E452E491D0F8D070931E
:1007200077026093760210922102109220020895BF
:10073000E0E8F0E080818083E1E8F0E0808185609E
:100740008083EFE6F0E08081816080830895789473
:10075000E4E0F1E0808183608083E5E0F1E0808186
:10076000836080831DB88FEF87B9809301018093E8
:100770000A0111B88093070180BBE0EAF0E09081A4
:10078000996A9083E1EAF0E090819D609083EAE6C7
:10079000F0E090819C609083ED9A8093020144DFA9
:1007A000C7DF0F2EF6E7EF2EF2E0FF2EF02D08E068
:1007B00011E0C8E6D2E0B6DC43DF80911E029091E2
:1007C0001F02019729F475DF10921F0210921E027A
:1007D000F7018081F8018083888181BBECCF1F9273
:1007E0000F920FB60F9211242F933F938F939F93E5
:1007F0008FE99CEF909385008093840080911A028A
:1008000090911B0290933B0280933A022091380210
:10081000309139028217930709F418B880913A028F
:1008200090913B0290933902809338029F918F916F
:100830003F912F910F900FBE0F901F9018950CD0E5
:10084000EBC0E3D040F0DAD030F021F45F3F19F094
:10085000CCC0511115C1CFC0F0D098F39923C9F382
:100860005523B1F3951B550BBB27AA2762177307B6
:10087000840738F09F5F5F4F220F331F441FAA1F6A
:10088000A9F333D00E2E3AF0E0E830D0915050402A
:10089000E695001CCAF729D0FE2F27D0660F771FD8
:1008A000881FBB1F261737074807AB07B0E809F0BA
:1008B000BB0B802DBF01FF2793585F4F2AF09E3F4F
:1008C000510568F092C0DCC05F3FECF3983EDCF36A
:1008D000869577956795B795F7959F5FC9F7880FC8
:1008E000911D9695879597F90895E1E0660F771F1A
:1008F000881FBB1F621773078407BA0720F0621BAB
:10090000730B840BBA0BEE1F88F7E095089504D0A3
:100910006894B111B5C0089598D088F09F5790F0B1
:10092000B92F9927B751A0F0D1F0660F771F881F14
:10093000991F1AF0BA95C9F712C0B13081F09FD053
:10094000B1E008959CC0672F782F8827B85F39F0F1
:10095000B93FCCF3869577956795B395D9F73EF473
:1009600090958095709561957F4F8F4F9F4F08951B
:10097000E89409C097FB3EF4909580957095619539
:100980007F4F8F4F9F4F9923A9F0F92F96E9BB27EF
:100990009395F695879577956795B795F111F8CF6B
:1009A000FAF4BB0F11F460FF1BC06F5F7F4F8F4FD6
:1009B0009F4F16C0882311F096E911C0772321F0CC
:1009C0009EE8872F762F05C0662371F096E8862F64
:1009D00070E060E02AF09A95660F771F881FDAF7BB
:1009E000880F9695879597F9089597F99F6780E8FE
:1009F00070E060E008959FEF80EC089500240A9471
:100A00001616170618060906089500240A941216E9
:100A10001306140605060895092E0394000C11F41C
:100A2000882352F0BB0F40F4BF2B11F460FF04C0C9
:100A30006F5F7F4F8F4F9F4F089557FD9058440F22
:100A4000551F59F05F3F71F04795880F97FB991F2D
:100A500061F09F3F79F087950895121613061406EA
:100A6000551FF2CF4695F1DF08C016161706180677
:100A7000991FF1CF86957105610508940895E89452
:100A8000BB2766277727CB0197F90895052E97FB9B
:100A900016F400940FD057FD05D01ED007FC02D0ED
:100AA00046F408C050954095309521953F4F4F4FE3
:100AB0005F4F089590958095709561957F4F8F4F0A
:100AC0009F4F08952BD0A59F900DB49F900DA49F8C
:100AD000800D911D11240895A1E21A2EAA1BBB1BA3
:100AE000FD010DC0AA1FBB1FEE1FFF1FA217B307FA
:100AF000E407F50720F0A21BB30BE40BF50B661F10
:100B0000771F881F991F1A9469F7609570958095D3
:100B100090959B01AC01BD01CF010895A29FB0014A
:100B2000B39FC001A39F700D811D1124911DB29F21
:0E0B3000700D811D1124911D0895F894FFCFC2
:100B3E00E803646464646464646464646464646444
:0C0B4E0064646400C800C800FFFFFFFFE3
:00000001FF
